S0130000416C6C53656E73655F76342E73726563F1
S11300000C9404010C9421010C9421010C94210101
S11300100C9421010C9421010C9421010C942101D4
S11300200C9421010C9421010C9421010C942101C4
S11300300C9421010C9421010C9421010C942101B4
S11300400C9421010C9421010C9421010C942101A4
S11300500C9421010C9421010C9421010C94210194
S11300600C9421010C94D1020C9421010C94AB0248
S11300700C9421010C9421010C9421010C94210174
S11300800C9421010C9421010C9421010C94210164
S11300900C9421010C9421010C9421010C94210154
S11300A00C9421010C9421010C9421010C94210144
S11300B00C9421010C9421010C9421010C94210134
S11300C00C9421010C9421010C9421010C94210124
S11300D00C9421010C9421010C9421010C94210114
S11300E00C9421010C9421010C9485020C9421019F
S11300F00C945F020C9421010C9421010C942101B5
S11301000C9421010C9421010C9421010C942101E3
S11301100C9421010C9421010C9421010C942101D3
S11301200C9421010C9421010C9421010C942101C3
S11301300C9421010C9421010C9421010C942101B3
S11301400C9421010C9421010C9421010C942101A3
S11301500C9421010C9421010C9421010C94210193
S11301600C9421010C9421010C9421010C94210183
S11301700C9421010C9421010C9421010C94210173
S11301800C9421010C9421010C9421010C94210163
S11301900C9421010C9421010C9421010C94210153
S11301A00C9421010C9421010C9421010C94210143
S11301B00C9421010C9421010C9421010C94210133
S11301C00C9421010C9421010C9421010C94210123
S11301D00C9421010C9421010C9421010C94210113
S11301E00C9421010C9421010C9421010C94210103
S11301F00C9421010C9421010C9421016364696E17
S11302006F70737578585B0011241FBECFEFCDBF9C
S1130210DFE2DEBF10E2A0E0B0E2EEE4F1E102C012
S113022005900D92A432B107D9F720E2A4E2B0E21E
S113023001C01D92A036B207E1F70E94EA010C94B6
S1130240A5080C9400009FB7F894E0E5F0E08BE477
S11302508283808188608083E0E4F0E0818180781B
S113026028ED24BF8183E0E5F0E0818183FFFDCFA9
S1130270E0E4F0E08081887F836028ED24BF808300
S1130280E0E5F0E08081887E8083E0EBF0E084812B
S1130290807F84839FBF0895E0E8F1E0108211829B
S11302A012821382148215821682178280858078C6
S11302B080871186828580788287138684858078FA
S11302C08487158616861786E0EBF0E084818F7CA0
S11302D084838681887F86830895E0E0F6E0148233
S11302E01082108A118A128A138A148A158A168A2D
S11302F0178A8185807F818712861386E0E2F6E083
S1130300148284E08083108A118A128A138A818578
S1130310807F818712861386E0E4F6E088E0848398
S11303208083108A118A128A138A148A158A168A7B
S1130330178A16869185907F918712861386E0E648
S1130340F6E0148293E09083108A118A128A138A49
S1130350148A158A168A178A9185907F9187128646
S11303601386E0E8F6E084838083108A118A128A77
S1130370138A8185807F818712861386E0EEF7E0F9
S113038014821082108A118A8185807F8187128667
S113039013860895E0EBF0E080E1828382E38383B7
S11303A00895813051F018F0823069F00895E0E248
S11303B0F6E084818B7F84830895E0E2F6E0848113
S11303C0846084830895E0E2F6E0948184E08927E0
S11303D084830895E8E7F0E080818083F894E0EA7C
S11303E0F0E082818873816898ED94BF82831182E2
S11303F00E9423010E944C010E946D010E94CA01C7
S113040083E080936406AA24A3940F2EF8E1CF2EF0
S1130410F5E9DF2EF0E7EF2EF12CF02D00E012ECE1
S113042021E030E040E856E060EA7AE086E290E2DB
S11304300E94CA0300E012EC21E030E040E456E000
S113044060EA78E081E490E20E94CA0381E490E2E9
S11304500E943603789466E070E286E290E20E949D
S11304609303CCE1D0E268E170E281E490E20E947F
S1130470930381E490E20E9445038823A1F0DF9373
S1130480CF93809125208F93809124208F930E9475
S113049040050F900F900F900F90892B21F381E06E
S11304A00E94D1010BC0609124207091252046E266
S11304B050E281E490E20E94AA03D5CFFFCF1F92BD
S11304C00F920FB60F9211242F933F934F935F9384
S11304D06F937F938F939F93AF93BF93EF93FF9308
S11304E086E290E20E941303FF91EF91BF91AF91D6
S11304F09F918F917F916F915F914F913F912F9138
S11305000F900FBE0F901F9018951F920F920FB669
S11305100F9211242F933F934F935F936F937F9385
S11305208F939F93AF93BF93EF93FF9386E290E2F1
S11305300E94F702FF91EF91BF91AF919F918F912C
S11305407F916F915F914F913F912F910F900FBECB
S11305500F901F9018951F920F920FB60F921124AF
S11305602F933F934F935F936F937F938F939F93B7
S1130570AF93BF93EF93FF9381E490E20E94130340
S1130580FF91EF91BF91AF919F918F917F916F9167
S11305905F914F913F912F910F900FBE0F901F903D
S11305A018951F920F920FB60F9211242F933F9319
S11305B04F935F936F937F938F939F93AF93BF9367
S11305C0EF93FF9381E490E20E94F702FF91EF9191
S11305D0BF91AF919F918F917F916F915F914F9157
S11305E03F912F910F900FBE0F901F901895FC0113
S11305F0A081B18111968C9111979C918C7191F489
S1130600A685B785838921E0280F238BA80FB11D08
S11306109C938789908D0196878B908F892B11F4F9
S113062081E0828B0895FC01818D928D892B91F05C
S1130630818D928D0197818F928FA081B181808964
S11306409189268931E0320F368BFC01E20FF11DCE
S113065080818C930895DC0118966C931897ED9122
S1130660FC918481682B648381E00895CF93DF93A8
S1130670EC0160E10E942B03E881F98183818061B0
S1130680838381E0DF91CF910895FC012789308D28
S113069081E0232B09F480E00895FC01848595858D
S11306A0218D328D28173907D9F3F894818D928DD5
S11306B0892B39F4A081B18111968C91119785FD14
S11306C00FC0A089B189858991E0980F958BA80FF7
S11306D0B11D6C93818D928D0196818F928F01C093
S11306E06C93789481E00895CF93FC01AB01278942
S11306F0308D232BE1F3A685B785948981E0890F9A
S1130700848BA90FB11DCC91F8942789308D215089
S11307103109278B308F78946C2FCA010E944D03C6
S11307208C2FCF9108950F931F93CF93DF93EB01F9
S11307306881662349F08C012196C8010E944D030B
S113074069916111FACF01C081E0DF91CF911F91CE
S11307500F910895CF92DF92EF92FF920F931F9320
S1130760CF937C016B018A01C0E005C0F601EC0F58
S1130770F11D8083CF5FB801C7010E94740381110A
S1130780F5CF81E0CF911F910F91FF90EF90DF9013
S1130790CF900895CF93DF93EC01688379834A83E4
S11307A05B83FA01808188608083EA81FB81848194
S11307B088608483EA81FB81858188608583E88100
S11307C0F981858183608583E881F9818381807CD7
S11307D08383E881F981838184608383E881F9815B
S11307E080E88683E881F98181E98783E881F9815A
S11307F08481807E848388E08987E881F98184818B
S11308008860848380E091E08A879B878C879D87BA
S11308101C8A1B8A1E8A1D8A1F8A188E198E1A8E9C
S11308201A8A0E941F048E879F8780E091E00E94AD
S11308301F04888B998B81E0DF91CF9108950F93EA
S11308401F93CF93DF938230910510F482E090E000
S1130850E0915E20F0915F2020E030E0A0E0B0E085
S1130860309719F14081518102811381481759074A
S1130870C8F08417950769F4109731F012960C9319
S1130880129713961C9327C000935E2010935F2049
S113089022C02115310519F04217530718F49A01A3
S11308A0BD01EF01DF01F801DBCF21153105F9F0BE
S11308B0281B390B2430310580F48A819B81611512
S11308C0710521F0FB018283938304C080935E2031
S11308D090935F20FE01329644C0FE01E20FF31FA5
S11308E08193919322503109288339833AC020910E
S11308F05C2030915D20232B41F420910220309123
S1130900032020935C2030935D20209100203091BF
S113091001202115310541F42DB73EB74091042043
S113092050910520241B350BE0915C20F0915D2053
S1130930E217F307A0F42E1B3F0B2817390778F0B2
S1130940AC014E5F5F4F2417350748F04E0F5F1F11
S113095040935C2050935D208193919302C0E0E02A
S1130960F0E0CF01DF91CF911F910F910895CF93C4
S1130970DF93009709F481C0FC013297128213823D
S1130980A0915E20B0915F20109781F42081318185
S1130990820F931F20915C2030915D202817390726
S11309A051F5E0935C20F0935D2067C0ED0120E0F9
S11309B030E0CE17DF0740F44A815B819E01411588
S11309C05105F1F0EA01F5CFC283D383408151810F
S11309D0840F951FC817D90759F488819981840F0A
S11309E0951F0296808391838A819B81828393835E
S11309F02115310529F4E0935E20F0935F203DC07A
S1130A00E901EA83FB8349915991C40FD51FEC177F
S1130A10FD0761F480819181840F951F0296E9019D
S1130A2088839983828193818A839B83E0E0F0E0C9
S1130A3012968D919C911397009719F0FD01DC019A
S1130A40F7CF8D919C9111979D012E5F3F4F820F9F
S1130A50931F20915C2030915D202817390769F499
S1130A60309729F410925E2010925F2002C0128207
S1130A701382A0935C20B0935D20DF91CF91089501
S1130A80AEE0B0E0E6E4F5E00C9484088DE08C83FD
S1130A908B899C8989839A83AE01495E5F4F6D89F6
S1130AA07E89CE0101960E94F5062E96E2E00C9412
S1130AB09D0820FD09C0FC0123FD05C022FF02C0E2
S1130AC07383628351834083089544FD17C046FDB8
S1130AD017C0AB01BC01DA01FB01AA0FBB1FEE1F5B
S1130AE0FF1F1094D1F74A0F5B1F6E1F7F1FCB01AE
S1130AF0BA01660F771F881F991F09C033E001C030
S1130B0034E0660F771F881F991F3150D1F7620FA9
S1130B10711D811D911D08950F931F93CF93DF9332
S1130B208C01C8010E941A08EC0197FD08C00E94BC
S1130B300608892BB1F7B801CE010E945808CE01EE
S1130B40DF91CF911F910F9108958F929F92AF9251
S1130B50BF92EF92FF920F931F93CF93DF938C0179
S1130B60D62F7A01B22E0E941A089C0133272B3209
S1130B70310531F02D32310561F48B2D8068B82EAA
S1130B80D15011F480E068C0C8010E941A0897FD92
S1130B90F9CFCB2DCD7F2B2D207309F58033F9F4BC
S1130BA0AA24AA94AD0E09F443C0C8010E941A08ED
S1130BB097FD3EC09C012F7D33272835310549F42C
S1130BC0C264D250A9F1C8010E941A0897FF07C055
S1130BD02FC0B6FE02C0C26001C0C261DA2D812CF2
S1130BE0912C540120ED280F283080F0C4FF04C05C
S1130BF0B8010E94580819C02A3040F0C6FFF8CF47
S1130C002F7D3FEE320F363098F727504C2FC50119
S1130C10B4010E9465054B015C01C260D15059F0DA
S1130C20C8010E941A0897FFDDCFC1FD04C0AACFF6
S1130C30812C912C5401C7FF08C0B094A0949094C7
S1130C408094811C911CA11CB11C2C2FB501A40102
S1130C50C7010E94590581E0DF91CF911F910F9147
S1130C60FF90EF90BF90AF909F908F900895A0E277
S1130C70B0E0EDE3F6E00C9477085C01962E7A017F
S1130C80F9018E010F5F1F4F680180E2D8011D92A8
S1130C908A95E9F7D50113968C9080E090E0612C59
S1130CA0712C30E061E070E083FC259183FE21919A
S1130CB08F01522E211103C080E090E092C02E35A6
S1130CC011F4009751F1432F50E0481759073CF4B1
S1130CD02D3559F12D3219F4772009F103C077200D
S1130CE009F46AC0452D469546954695D601A40F4C
S1130CF0B11D452D47708B0102C0000F111F4A958D
S1130D00E2F7A8015C91452B4C93651459F05614F5
S1130D1010F45394E7CF5A94E5CF31E004C077241C
S1130D20739401C0712C0196BFCF772019F08E8186
S1130D3080628E83311103C08824839417C0F60126
S1130D409E012F5D3F4F8081809581932E173F0731
S1130D50D1F7F2CFE114F10429F0D7018C93F70114
S1130D6031967F019A94812C9920F9F0C5010E9453
S1130D701A0897FD18C0FC01FF2723E0F595E795B5
S1130D802A95E1F7EC0DFD1D208130E0AC014770A0
S1130D90552702C0359527954A95E2F720FDDACF0D
S1130DA0B5010E945808811087CFE114F10411F0B5
S1130DB0D7011C92C80115C0422F46954695469509
S1130DC0D601A40FB11D422F47708B0102C0000F42
S1130DD0111F4A95E2F7A8015C91452B4C93622EB2
S1130DE0A2CFA096EFE00C949008A0E0B0E0EBEF67
S1130DF0F6E00C9477086C01EB015A01FC011682B1
S1130E001782512CF601E380FE01E3FC8591E3FE99
S1130E108191182FEF01882309F4EEC090E00E941D
S1130E200608892B21F0C6010E948C05EBCF1532F0
S1130E3041F4FE01E3FC1591E3FE1191EF0115323B
S1130E4081F4C6010E941A0897FDD4C0412F50E0D6
S1130E509C01332724173507A9F2B6010E945808CC
S1130E60CBC01A3239F4E3FC1591E3FE1191EF0182
S1130E7001E001C000E0F12C20ED210F2A3080F4C4
S1130E8002606F2D70E080E090E040E20E94650512
S1130E90F62EFE01E3FC1591E3FE1191EF01ECCF78
S1130EA001FF03C0F11003C0A7C0FF24FA94183651
S1130EB019F01C3651F010C0FE01E3FC1591E3FE5D
S1130EC01191EF01183641F408600460FE01E3FC5F
S1130ED01591E3FE1191EF01112309F48DC0612FE7
S1130EE070E08CEF91E00E940F08892B09F484C014
S1130EF000FD07C0F50180809180C50102965C0168
S1130F0002C0812C912C1E3651F4F6014681578182
S1130F1060E070E0202FC4010E94590573CF13369E
S1130F20A9F401FD02C0FF24F394C6010E941A082B
S1130F3097FD60C08114910429F0F4018083C401F9
S1130F4001964C01FA94F110F0CF50C01B3559F4BE
S1130F509E01A4016F2DC6010E943706EC01892B66
S1130F6009F044C03EC0C6010E948C0597FD42C0F2
S1130F701F3661F128F4143639F1193651F128C0BD
S1130F80133771F0153701F123C08114910429F04E
S1130F90F4016082C40101964C01FA94FF2071F0BF
S1130FA0C6010E941A083C0197FD08C00E94060869
S1130FB0892B59F3B601C3010E9458088114910486
S1130FC0A9F0F401108212C0006203C0006101C0E4
S1130FD00064202FA4016F2DC6010E94A505811174
S1130FE005C0F6018381807329F406C000FD0ACF91
S1130FF0539408CF552019F0852D90E002C08FEF4F
S11310009FEFCDB7DEB7EFE00C94900891110C94EC
S11310107108803219F089508550C8F70895FC0191
S11310200590061621F00020D9F7C00108953197E4
S1131030CF010895CF93DF93EC012B8120FF33C0C0
S113104026FF0AC02F7B2B838E819F8101968E837E
S11310509F838A8190E029C022FF0FC0E881F98133
S11310608081082E000C990B009719F420622B83C1
S11310701AC03196E883F9830EC0EA85FB85099589
S113108097FF09C02B81019611F080E201C080E135
S1131090822B8B8308C02E813F812F5F3F4F2E838D
S11310A03F83992702C08FEF9FEFDF91CF9108957F
S11310B0FB01238120FF12C026FD10C08F3F3FEFAC
S11310C0930761F082832F7D2064238326813781F7
S11310D02150310926833783992708958FEF9FEF95
S11310E008959927882708952F923F924F925F92EF
S11310F06F927F928F929F92AF92BF92CF92DF9224
S1131100EF92FF920F931F93CF93DF93CDB7DEB788
S1131110CA1BDB0BCDBFDEBF09942A8839884888F7
S11311205F846E847D848C849B84AA84B984C884FF
S1131130DF80EE80FD800C811B81AA81B981CE0FF6
S1111140D11DCDBFDEBFED010895F894FFCFA1
S113114E0000602020002D2D2D2D2D2D496E69744B
S113115E2D2D2D2D2D2D0D0041540D000D0A4F4B0F
S107116E0D0A000062
S9030000FC
