S0130000416C6C53656E73655F76342E73726563F1
S11300000C94FE000C9410010C9410010C9410013B
S11300100C9410010C9410010C9410010C94100118
S11300200C9410010C9410010C9410010C94100108
S11300300C9410010C9410010C9410010C941001F8
S11300400C9410010C9410010C9410010C941001E8
S11300500C9410010C9410010C9410010C941001D8
S11300600C9410010C94E5010C9410010C943202D0
S11300700C9410010C9410010C9410010C941001B8
S11300800C9410010C9410010C9410010C941001A8
S11300900C9410010C9410010C9410010C94100198
S11300A00C9410010C9410010C9410010C94100188
S11300B00C9410010C9410010C9410010C94100178
S11300C00C9410010C9410010C9410010C94100168
S11300D00C9410010C9410010C9410010C94100158
S11300E00C9410010C9410010C949D020C941001BA
S11300F00C94CD020C9410010C9410010C9410017A
S11301000C9410010C9410010C9410010C94100127
S11301100C9410010C9410010C9410010C94100117
S11301200C9410010C9410010C9410010C94100107
S11301300C9410010C9410010C9410010C941001F7
S11301400C9410010C9410010C9410010C941001E7
S11301500C9410010C9410010C9410010C941001D7
S11301600C9410010C9410010C9410010C941001C7
S11301700C9410010C9410010C9410010C941001B7
S11301800C9410010C9410010C9410010C941001A7
S11301900C9410010C9410010C9410010C94100197
S11301A00C9410010C9410010C9410010C94100187
S11301B00C9410010C9410010C9410010C94100177
S11301C00C9410010C9410010C9410010C94100167
S11301D00C9410010C9410010C9410010C94100157
S11301E00C9410010C9410010C9410010C94100147
S11301F00C9410010C9410010C94100111241FBED6
S1130200CFEFCDBFDFE2DEBF24E2A0E0B0E201C069
S11302101D92A131B207E1F70E9424030C947303E9
S11302200C9400009FB7F894E0E5F0E08BE482833F
S1130230808188608083E0E4F0E08181807828ED2B
S113024024BF8183E0E5F0E0818183FFFDCFE0E41A
S1130250F0E08081887F836028ED24BF8083E0E51F
S1130260F0E08081887E8083E0EBF0E08481807F11
S113027084839FBF0895E0E8F1E010821182128226
S11302801382148215821682178280858078808773
S11302901186828580788287138684858078848716
S11302A0158616861786E0EBF0E084818F7C8483C4
S11302B08681887F86830895E0E0F6E014821082C8
S11302C0108A118A128A138A148A158A168A178A3E
S11302D08185807F818712861386E0E2F6E01482AE
S11302E084E08083108A118A128A138A8185807F30
S11302F0818712861386E0E4F6E088E084838083B5
S1130300108A118A128A138A148A158A168A178AFD
S113031016869185907F918712861386E0E6F6E033
S1130320148293E09083108A118A128A138A148AA1
S1130330158A168A178A9185907F9187128613866B
S1130340E0E8F6E084838083108A118A128A138A93
S11303508185807F818712861386E0EEF7E0148220
S11303601082108A118A8185807F81871286138684
S11303700895E0EBF0E080E1828382E383830895D3
S1130380882319F0813039F00895E0E2F6E08481A1
S11303908B7F84830895E0E2F6E084818460848323
S11303A0089588E080934506E0EAF8E083E08583D9
S11303B08381807C8461838380E8868381E9878369
S11303C08481807E8861848308951F920F920FB682
S11303D00F9211248F939F93EF93FF93E0EAF8E039
S11303E0818190818C71C1F4E091102081E08E0FA5
S11303F080931020F0E0EF5EFD4D908380910D20FE
S113040090910E20019680930D2090930E20892BBD
S113041019F481E080930C20FF91EF919F918F91CB
S11304200F900FBE0F901F90189580910D20909102
S11304300E20892BD1F3E0910F2081E08E0F809361
S11304400F20F0E0EF5EFD4D8081F89420910D20A7
S113045030910E202150310920930D2030930E202D
S1130460789408951F920F920FB60F9211248F93D0
S11304709F93EF93FF938091082090910920892BFB
S1130480A9F0809108209091092001978093082079
S113049090930920E0910A2081E08E0F80930A2036
S11304A0F0E0EF5EFF4D80818093A008FF91EF9113
S11304B09F918F910F900FBE0F901F9018952091D0
S11304C008203091092021153140C9F3F894209176
S11304D0082030910920232B21F49091A10895FD47
S11304E014C0E0910B2091E09E0F90930B20F0E05C
S11304F0EF5EFF4D80838091082090910920019642
S1130500809308209093092002C08093A0087894D7
S1130510089588E080938506E0EAFAE083E0858325
S11305208381807C8461838380E8868381E98783F7
S11305308481807E8861848308951F920F920FB610
S11305400F9211248F939F93EF93FF93E0EAFAE0C5
S1130550818190818C71C1F4E091072081E08E0F3C
S113056080930720F0E0EF5EFC4D9083809105209E
S11305709091062001968093052090930620892B64
S113058019F481E080930420FF91EF919F918F9162
S11305900F900FBE0F901F9018951F920F920FB6D9
S11305A00F9211248F939F93EF93FF9380910020D8
S11305B090910120892BA9F0809100209091012035
S11305C001978093002090930120E091022081E024
S11305D08E0F80930220F0E0EF5EFE4D80818093C9
S11305E0A00AFF91EF919F918F910F900FBE0F90F2
S11305F01F90189520910020309101202115314041
S1130600C9F3F8942091002030910120232B21F488
S11306109091A10A95FD14C0E091032091E09E0FF2
S113062090930320F0E0EF5EFE4D808380910020E4
S1130630909101200196809300209093012002C0A4
S11306408093A00A78940895E8E7F0E0808180839D
S1130650F894E0EAF0E082818873816898ED94BFB1
S1130660828311820E9412010E943B010E945C015C
S11306700E94B90183E0809364060E94D1010E9424
S113068089027894C0E001C0C1E081E40E945F0265
S113069084E50E945F028DE00E945F020E941502C1
S11306A08F3491F38B3489F7C13079F78FE40E944A
S11306B0FA028BE40E94FA028DE00E94FA0281E0C1
S11306C00E94C00181E40E945F0284E50E945F02EF
S11306D089E40E945F028DE00E945F020E9415027D
S10D06E00E94FA02FBCFF894FFCF4A
S9030000FC
