S0130000416C6C53656E73655F76342E73726563F1
S11300000C9404010C9421010C9421010C94210101
S11300100C9421010C9421010C9421010C942101D4
S11300200C9421010C9421010C9421010C942101C4
S11300300C9421010C9421010C9421010C942101B4
S11300400C9421010C9421010C9421010C942101A4
S11300500C9421010C9421010C9421010C94210194
S11300600C9421010C943D020C9421010C94170270
S11300700C9421010C9421010C9421010C94210174
S11300800C9421010C9421010C9421010C94210164
S11300900C9421010C9421010C9421010C94210154
S11300A00C9421010C9421010C9421010C94210144
S11300B00C9421010C9421010C9421010C94210134
S11300C00C9421010C9421010C9421010C94210124
S11300D00C9421010C9421010C9421010C94210114
S11300E00C9421010C9421010C94F1010C94210134
S11300F00C94CB010C9421010C9421010C9421014A
S11301000C9421010C9421010C9421010C942101E3
S11301100C9421010C9421010C9421010C942101D3
S11301200C9421010C9421010C9421010C942101C3
S11301300C9421010C9421010C9421010C942101B3
S11301400C9421010C9421010C9421010C942101A3
S11301500C9421010C9421010C9421010C94210193
S11301600C9421010C9421010C9421010C94210183
S11301700C9421010C9421010C9421010C94210173
S11301800C9421010C9421010C9421010C94210163
S11301900C9421010C9421010C9421010C94210153
S11301A00C9421010C9421010C9421010C94210143
S11301B00C9421010C9421010C9421010C94210133
S11301C00C9421010C9421010C9421010C94210123
S11301D00C9421010C9421010C9421010C94210113
S11301E00C9421010C9421010C9421010C94210103
S11301F00C9421010C9421010C9421016364696E17
S11302006F70737578585B0011241FBECFEFCDBF9C
S1130210DFE2DEBF10E2A0E0B0E2E2EBFEE102C00A
S113022005900D92A631B107D9F720E2A6E1B0E21C
S113023001C01D92A635B207E1F70E9452010C9449
S1130240570F0C9400009FB7F894E0E5F0E08BE4BE
S11302508283808188608083E0E4F0E0818180781B
S113026028ED24BF8183E0E5F0E0818183FFFDCFA9
S1130270E0E4F0E08081887F836028ED24BF808300
S1130280E0E5F0E08081887E8083E0EBF0E084812B
S1130290807F84839FBF0895E0E6F6E083E0808357
S11302A084830895E8E7F0E080818083F894E0EAAD
S11302B0F0E082818873816898ED94BF8283118213
S11302C00E9423010E944C010F2EF8E1CF2EF5E984
S11302D0DF2EF0E7EF2EF12CF02D00E012EC21E000
S11302E030E040E856E060EA7AE088E190E20E947B
S11302F0270800E012EC21E030E040E456E060EA38
S113030078E085E390E20E94270885E390E20E946A
S113031093077894CAE0D0E266E070E285E390E265
S11303200E94F00785E390E20E94A207882389F0E7
S1130330DF93CF93809117208F93809116208F9312
S11303400E94F20B0F900F900F900F90892B21F3C6
S11303500BC0609116207091172048E150E285E3AC
S113036090E20E940708D8CF61E170E285E390E251
S11303700E94F00785E390E20E94A2078823D1F34C
S1130380609116207091172048E150E285E390E2D5
S11303900E940708FFCF1F920F920FB60F921124ED
S11303A02F933F934F935F936F937F938F939F9379
S11303B0AF93BF93EF93FF9388E190E20E947F0293
S11303C0FF91EF91BF91AF919F918F917F916F9129
S11303D05F914F913F912F910F900FBE0F901F90FF
S11303E018951F920F920FB60F9211242F933F93DB
S11303F04F935F936F937F938F939F93AF93BF9329
S1130400EF93FF9388E190E20E946302FF91EF91E2
S1130410BF91AF919F918F917F916F915F914F9118
S11304203F912F910F900FBE0F901F9018951F9220
S11304300F920FB60F9211242F933F934F935F9314
S11304406F937F938F939F93AF93BF93EF93FF9398
S113045085E390E20E947F02FF91EF91BF91AF91FB
S11304609F918F917F916F915F914F913F912F91C8
S11304700F900FBE0F901F9018951F920F920FB6FA
S11304800F9211242F933F934F935F936F937F9316
S11304908F939F93AF93BF93EF93FF9385E390E282
S11304A00E946302FF91EF91BF91AF919F918F9151
S11304B07F916F915F914F913F912F910F900FBE5C
S11304C00F901F901895FC01A081B18111968C9119
S11304D011979C918C7191F4A089B189858921E04F
S11304E0280F258BA80FB11D9C93818D928D0196A9
S11304F0818F928F892B11F481E0848B0895FC0104
S1130500838D948D892B91F0838D948D0197838FA6
S1130510948FA081B18182899389208D31E0320F3B
S1130520308FFC01E20FF11D80818C9308952F928E
S11305303F924F925F926F927F928F929F92AF926F
S1130540BF92CF92DF92EF92FF920F931F93CF93BC
S1130550DF93CDB7DEB72A97CDBFDEBF89879A87F1
S11305601B018A01FA0180819181A281B381E9850D
S1130570FA8584839583A683B78360807180FB01A9
S113058060817181828193810E94D6094B015C0153
S1130590F80160817181828193810E94D609698307
S11305A07A838B839C8320E030E040E851E40E940E
S11305B0640A9B01AC01C501B4010E942E096D833C
S11305C07E838F83988720E030E040E85FE30E94D9
S11305D0C1086B017C0120E030E040E053E40E945C
S11305E0640A0E94A009611570410CF494C020E0D3
S11305F030E040E852E4C701B6010E94640A0E9458
S1130600A009611570410CF48BC020E030E040E09B
S113061052E4C701B6010E94640A0E94A009611550
S113062070410CF40FC420E030E040E851E4C7010D
S1130630B6010E94640A0E94A009611570410CF47D
S113064001C420E030E040E051E4C701B6010E945B
S1130650640A0E94A009611570410CF4F3C320E000
S113066030E040E850E4C701B6010E94640A0E94E9
S1130670A009611570410CF4E5C3A7019601C701F7
S1130680B6010E94C2080E94A009611570410CF4D1
S1130690D9C36AC020E030E040E851E4C701B601A4
S11306A00E94640A0E94A00961157041F4F120E0DF
S11306B030E040E051E4C701B6010E94640A0E94A0
S11306C0A00961157041B4F120E030E040E850E445
S11306D0C701B6010E94640A0E94A0096115704115
S11306E074F1A7019601C701B6010E94C2080E94D5
S11306F0A0096115704144F16D817E818F819885D7
S11307000E94A009615071096115704114F160E003
S113071070E0CB0122C060E070E080E093E41DC093
S113072060E070E080E892E418C060E070E080E887
S113073091E413C060E070E080E091E40EC060E0FA
S113074070E080E890E409C060E070E080E090E44C
S113075004C060E070E080E89FE3A70196010E9476
S1130760640A0E94A009D0C06D817E818F81988522
S11307700E94A00961507109611570410CF493C085
S113078020E030E040E052E469817A818B819C81F1
S11307900E94640A9B01AC01C501B4010E942E09A8
S11307A00E94A00961507109611570410CF480C068
S11307B020E030E040E852E469817A818B819C81B9
S11307C00E94640A9B01AC01C501B4010E942E0978
S11307D00E94A00961507109611570410CF46DC04B
S11307E020E030E040E053E469817A818B819C8190
S11307F00E94640A9B01AC01C501B4010E942E0948
S11308000E94A00961507109611570410CF45AC02D
S113081020E030E040E853E469817A818B819C8157
S11308200E94640A9B01AC01C501B4010E942E0917
S11308300E94A00961507109611570410CF447C010
S113084020E030E040E054E469817A818B819C812E
S11308500E94640A9B01AC01C501B4010E942E09E7
S11308600E94A0096150710961157041ACF120E04A
S113087030E040E854E469817A818B819C810E9454
S1130880640A9B01AC01C501B4010E942E090E94B7
S1130890A00961507109611570411CF160E070E0BC
S11308A080E095E422C060E070E080E891E41DC03F
S11308B060E070E080E092E418C060E070E080E8FE
S11308C092E413C060E070E080E093E40EC060E066
S11308D070E080E893E409C060E070E080E094E4B4
S11308E004C060E070E080E894E429813A814B819F
S11308F05C810E94640A9B01AC01C501B4010E94A1
S11309002E090E94A0096150F3016683E985FA85E6
S11309100190F081E02DED83FE83F101608171810E
S1130920828193810E94D6092B013C01F8016081E8
S11309307181828193810E94D60969837A838B8332
S11309409C8320E030E040E851E40E94640A9B016B
S1130950AC01C301B2010E942E094B015C0120E0ED
S113096030E040E85FE30E94C1086B017C0120E0B5
S113097030E040E053E40E94640A0E94A00961153B
S113098070410CF464C120E030E040E852E4C70157
S1130990B6010E94640A0E94A009611570410CF41A
S11309A05CC120E030E040E052E4C701B6010E949F
S11309B0640A0E94A009611570410CF469C220E028
S11309C030E040E851E4C701B6010E94640A0E9485
S11309D0A009611570410CF45DC220E030E040E0F4
S11309E051E4C701B6010E94640A0E94A00961157E
S11309F070410CF451C220E030E040E850E4C701FB
S1130A00B6010E94640A0E94A009611570410CF4A9
S1130A1045C2A7019601C701B6010E94C2080E94FF
S1130A20A009611570410CF43BC2C501B4010E94D8
S1130A30A00961507109611570410CF433C220E0C2
S1130A4030E040E052E469817A818B819C810E948C
S1130A50640A9B01AC01C301B2010E942E090E94E9
S1130A60A00961507109611570410CF41DC220E0A8
S1130A7030E040E852E469817A818B819C810E9454
S1130A80640A9B01AC01C301B2010E942E090E94B9
S1130A90A00961507109611570410CF407C220E08E
S1130AA030E040E053E469817A818B819C810E942B
S1130AB0640A9B01AC01C301B2010E942E090E9489
S1130AC0A00961507109611570410CF4F1C120E075
S1130AD030E040E853E469817A818B819C810E94F3
S1130AE0640A9B01AC01C301B2010E942E090E9459
S1130AF0A00961507109611570410CF4DBC120E05B
S1130B0030E040E054E469817A818B819C810E94C9
S1130B10640A9B01AC01C301B2010E942E090E9428
S1130B20A00961507109611570410CF4C5C120E040
S1130B3030E040E854E469817A818B819C810E9491
S1130B40640A9B01AC01C301B2010E942E090E94F8
S1130B50A00961507109611570410CF4AFC110E72F
S1130B60AEC120E030E040E851E4C701B6010E9484
S1130B70640A0E94A009611570410CF476C120E05A
S1130B8030E040E051E4C701B6010E94640A0E94CB
S1130B90A009611570410CF468C120E030E040E820
S1130BA050E4C701B6010E94640A0E94A0096115BD
S1130BB070410CF45AC1A7019601C701B6010E9405
S1130BC0C2080E94A009611570410CF44EC16AC0AC
S1130BD020E030E040E851E4C701B6010E94640A15
S1130BE00E94A00961157041F4F120E030E040E07A
S1130BF051E4C701B6010E94640A0E94A00961156C
S1130C007041B4F120E030E040E850E4C701B6019F
S1130C100E94640A0E94A0096115704174F1A70141
S1130C209601C701B6010E94C2080E94A00961157D
S1130C30704144F1C501B4010E94A00961507109D9
S1130C406115704124F160E070E0CB0124C010E92B
S1130C5060E070E080E093E41EC010EA60E070E0C1
S1130C6080E892E418C060E070E080E891E413C08A
S1130C7060E070E080E091E40EC060E070E080E845
S1130C8090E409C060E070E080E090E404C060E0BB
S1130C9070E080E89FE3A70196010E94640A0E9425
S1130CA0A0091BC1C501B4010E94A00961507109CA
S1130CB0611570410CF493C020E030E040E052E450
S1130CC069817A818B819C810E94640A9B01AC01B9
S1130CD0C301B2010E942E090E94A009615071094A
S1130CE0611570410CF480C020E030E040E852E42B
S1130CF069817A818B819C810E94640A9B01AC0189
S1130D00C301B2010E942E090E94A0096150710919
S1130D10611570410CF46DC020E030E040E053E414
S1130D2069817A818B819C810E94640A9B01AC0158
S1130D30C301B2010E942E090E94A00961507109E9
S1130D40611570410CF45AC020E030E040E853E4EF
S1130D5069817A818B819C810E94640A9B01AC0128
S1130D60C301B2010E942E090E94A00961507109B9
S1130D70611570410CF447C020E030E040E054E4D9
S1130D8069817A818B819C810E94640A9B01AC01F8
S1130D90C301B2010E942E090E94A0096150710989
S1130DA061157041ACF120E030E040E854E4698121
S1130DB07A818B819C810E94640A9B01AC01C301EE
S1130DC0B2010E942E090E94A009615071096115A7
S1130DD070411CF160E070E080E095E422C060E0C6
S1130DE070E080E891E41DC060E070E080E092E48F
S1130DF018C060E070E080E892E413C060E070E046
S1130E0080E093E40EC060E070E080E893E409C001
S1130E1060E070E080E094E404C060E070E080E8AA
S1130E2094E429813A814B815C810E94640A9B018C
S1130E30AC01C301B2010E942E090E94A0096150B5
S1130E4071094BC020E030E040E052E4C701B60134
S1130E500E94640A0E94A009611570410CF01ACC2A
S1130E6060E070E080E092E478CC20E030E040E0A4
S1130E7052E4C701B6010E94640A0E94A0096115E8
S1130E8070410CF0A5CE60E070E080E092E403CF06
S1130E9010EB15C010EC13C010ED11C010EE0FC014
S1130EA010EF0DC010E00BC010E109C010E207C044
S1130EB010E305C010E403C010E501C010E620E013
S1130EC030E040E052E4C701B6010E94640A0E9487
S1130ED0A009611570414CF244CE712BED81FE8165
S1130EE0778381E02A96CDBFDEBFDF91CF911F913A
S1130EF00F91FF90EF90DF90CF90BF90AF909F90B5
S1130F008F907F906F905F904F903F902F900895B7
S1130F10DC011A966C931A97ED91FC918481682BED
S1130F20648381E00895CF93DF93EC0160E10E9434
S1130F308807E881F98183818061838381E0DF917F
S1130F40CF910895FC01218D328D81E0232B09F48A
S1130F5080E00895FC0186859785238D348D2817BC
S1130F603907D9F3F894838D948D892B39F4A081B2
S1130F70B18111968C91119785FD0FC0A289B38917
S1130F80878991E0980F978BA80FB11D6C93838D7F
S1130F90948D0196838F948F01C06C93789481E033
S1130FA00895CF93FC01AB01218D328D232BE1F306
S1130FB0A089B189968981E0890F868BA90FB11D1B
S1130FC0CC91F894218D328D21503109218F328FAB
S1130FD078946C2FCA010E94AA078C2FCF91089590
S1130FE00F931F93CF93DF93EB016881662349F03E
S1130FF08C012196C8010E94AA0769916111FACF58
S113100001C081E0DF91CF911F910F910895CF929C
S1131010DF92EF92FF920F931F93CF937C016B01AA
S11310208A01C0E005C0F601EC0FF11D8083CF5F9B
S1131030B801C7010E94D1078111F5CF81E0CF919A
S11310401F910F91FF90EF90DF90CF900895AF9292
S1131050BF92CF92DF92EF92FF920F931F93CF93A1
S1131060DF93CDB7DEB72897CDBFDEBF5C01098320
S11310701A832B833C83CD82DE82EF82F886DC01E7
S11310806D937C93119712964D935C931397FA0189
S11310908081886080831296ED91FC9113978481FE
S11310A0886084831296ED91FC9113978581886002
S11310B08583ED91FC911197858183608583ED9102
S11310C0FC9111978381807C8383ED91FC918381D2
S11310D084608383AE014F5F5F4FBE016B5F7F4FC0
S11310E0C5010E949702D501ED91FC91119784816D
S11310F0807E848388E01B968C931B97ED91FC91F2
S1131100119784818860848380E091E01C968D939C
S11311109C931D971E968D939C931F9756961C9295
S1131120569755961C92559758961C9258975796D1
S11311301C92579759961D921C925A975B961D9232
S11311401C925C9754961C920E94D10AF501808BE4
S1131150918B80E091E00E94D10AD50152968D9343
S11311609C93539781E02896CDBFDEBFDF91CF914A
S11311701F910F91FF90EF90DF90CF90BF90AF90B1
S113118008955058BB27AA270E94D9080C942A0A0C
S11311900E941C0A38F00E94230A20F039F49F3F71
S11311A019F426F40C94190A0EF4E095E7FB0C9458
S11311B0130AE92F0E943B0A58F3BA176207730710
S11311C08407950720F079F4A6F50C945D0A0EF4D3
S11311D0E0950B2EBA2FA02D0B01B90190010C0143
S11311E0CA01A0011124FF27591B99F0593F50F45B
S11311F0503E68F11A16F040A22F232F342F4427B3
S1131200585FF3CF469537952795A795F0405395AA
S1131210C9F77EF41F16BA0B620B730B840BBAF07A
S11312209150A1F0FF0FBB1F661F771F881FC2F7E5
S11312300EC0BA0F621F731F841F48F487957795F9
S11312406795B795F7959E3F08F0B0CF9395880FB3
S113125008F09927EE0F9795879508950E94420903
S11312600C942A0A0E94230A58F00E941C0A40F097
S113127029F45F3F29F00C94130A51110C945E0A6F
S11312800C94190A0E943B0A68F39923B1F355237D
S113129091F3951B550BBB27AA2762177307840785
S11312A038F09F5F5F4F220F331F441FAA1FA9F31B
S11312B035D00E2E3AF0E0E832D091505040E69509
S11312C0001CCAF72BD0FE2F29D0660F771F881F6A
S11312D0BB1F261737074807AB07B0E809F0BB0B5D
S11312E0802DBF01FF2793585F4F3AF09E3F510571
S11312F078F00C94130A0C945E0A5F3FE4F3983E72
S1131300D4F3869577956795B795F7959F5FC9F759
S1131310880F911D9695879597F90895E1E0660FDA
S1131320771F881FBB1F621773078407BA0720F053
S1131330621B730B840BBA0BEE1F88F7E0950895BC
S11313400E94A7096894B1110C945E0A08950E9442
S1131350430A88F09F5798F0B92F9927B751B0F0F6
S1131360E1F0660F771F881F991F1AF0BA95C9F725
S113137014C0B13091F00E945D0AB1E008950C945C
S11313805D0A672F782F8827B85F39F0B93FCCF30F
S1131390869577956795B395D9F73EF490958095A2
S11313A0709561957F4F8F4F9F4F0895E89409C0C2
S11313B097FB3EF490958095709561957F4F8F4F84
S11313C09F4F9923A9F0F92F96E9BB279395F6959A
S11313D0879577956795B795F111F8CFFAF4BB0F18
S11313E011F460FF1BC06F5F7F4F8F4F9F4F16C07C
S11313F0882311F096E911C0772321F09EE8872F06
S1131400762F05C0662371F096E8862F70E060E0C1
S11314102AF09A95660F771F881FDAF7880F96953A
S1131420879597F9089597F99F6780E870E060E0E1
S113143008959FEF80EC089500240A941616170669
S113144018060906089500240A94121613061406B1
S113145005060895092E0394000C11F4882352F014
S1131460BB0F40F4BF2B11F460FF04C06F5F7F4FCC
S11314708F4F9F4F089557FD9058440F551F59F0B3
S11314805F3F71F04795880F97FB991F61F09F3F6D
S113149079F087950895121613061406551FF2CF96
S11314A04695F1DF08C0161617061806991FF1CFE6
S11314B086957105610508940895E894BB2766270D
S11314C07727CB0197F908950E94770A0C942A0A8A
S11314D00E941C0A38F00E94230A20F0952311F080
S11314E00C94130A0C94190A11240C945E0A0E9499
S11314F03B0A70F3959FC1F3950F50E0551F629F0F
S1131500F001729FBB27F00DB11D639FAA27F00D58
S1131510B11DAA1F649F6627B00DA11D661F829F7F
S11315202227B00DA11D621F739FB00DA11D621F64
S1131530839FA00D611D221F749F3327A00D611D81
S1131540231F849F600D211D822F762F6A2F112463
S11315509F5750409AF0F1F088234AF0EE0FFF1F96
S1131560BB1F661F771F881F91505040A9F79E3FED
S1131570510580F00C94130A0C945E0A5F3FE4F367
S1131580983ED4F3869577956795B795F795E79543
S11315909F5FC1F7FE2B880F911D9695879597F94C
S11315A008950F931F93CF93DF938230910510F426
S11315B082E090E0E0915420F091552020E030E06A
S11315C0A0E0B0E0309719F140815181028113818C
S11315D048175907C8F08417950769F4109731F034
S11315E012960C93129713961C9327C000935420C1
S11315F01093552022C02115310519F042175307C5
S113160018F49A01BD01EF01DF01F801DBCF2115C8
S11316103105F9F0281B390B2430310580F48A8117
S11316209B816115710521F0FB018283938304C0C2
S11316308093542090935520FE01329644C0FE01BD
S1131640E20FF31F81939193225031092883398348
S11316503AC02091522030915320232B41F4209101
S11316600220309103202093522030935320209164
S11316700020309101202115310541F42DB73EB7EA
S11316804091042050910520241B350BE0915220F9
S1131690F0915320E217F307A0F42E1B3F0B2817F9
S11316A0390778F0AC014E5F5F4F2417350748F0D7
S11316B04E0F5F1F40935220509353208193919378
S11316C002C0E0E0F0E0CF01DF91CF911F910F91D4
S11316D00895CF93DF93009709F481C0FC013297FA
S11316E012821382A0915420B0915520109781F456
S11316F020813181820F931F2091522030915320F9
S11317002817390751F5E0935220F093532067C00E
S1131710ED0120E030E0CE17DF0740F44A815B8121
S11317209E0141155105F1F0EA01F5CFC283D3833F
S113173040815181840F951FC817D90759F48881B6
S11317409981840F951F0296808391838A819B815E
S1131750828393832115310529F4E0935420F09377
S113176055203DC0E901EA83FB8349915991C40F97
S1131770D51FEC17FD0761F480819181840F951FBB
S11317800296E90188839983828193818A839B836A
S1131790E0E0F0E012968D919C911397009719F078
S11317A0FD01DC01F7CF8D919C9111979D012E5F76
S11317B03F4F820F931F20915220309153202817BE
S11317C0390769F4309729F4109254201092552067
S11317D002C012821382A0935220B0935320DF914F
S11317E0CF910895AEE0B0E0E8EFFBE00C94360F43
S11317F08DE08C838B899C8989839A83AE01495EB1
S11318005F4F6D897E89CE0101960E94A70D2E96A9
S1131810E2E00C944F0F20FD09C0FC0123FD05C03C
S113182022FF02C07383628351834083089544FD81
S113183017C046FD17C0AB01BC01DA01FB01AA0FBA
S1131840BB1FEE1FFF1F1094D1F74A0F5B1F6E1FC3
S11318507F1FCB01BA01660F771F881F991F09C02C
S113186033E001C034E0660F771F881F991F3150A1
S1131870D1F7620F711D811D911D08950F931F9360
S1131880CF93DF938C01C8010E94CC0EEC0197FD2D
S113189008C00E94B80E892BB1F7B801CE010E948E
S11318A00A0FCE01DF91CF911F910F9108958F926E
S11318B09F92AF92BF92EF92FF920F931F93CF9399
S11318C0DF938C01D62F7A01B22E0E94CC0E9C019C
S11318D033272B32310531F02D32310561F48B2D54
S11318E08068B82ED15011F480E068C0C8010E940D
S11318F0CC0E97FDF9CFCB2DCD7F2B2D207309F581
S11319008033F9F4AA24AA94AD0E09F443C0C801A3
S11319100E94CC0E97FD3EC09C012F7D33272835B5
S1131920310549F4C264D250A9F1C8010E94CC0E19
S113193097FF07C02FC0B6FE02C0C26001C0C261DB
S1131940DA2D812C912C540120ED280F283080F0C1
S1131950C4FF04C0B8010E940A0F19C02A3040F025
S1131960C6FFF8CF2F7D3FEE320F363098F7275061
S11319704C2FC501B4010E94170C4B015C01C260DD
S1131980D15059F0C8010E94CC0E97FFDDCFC1FDA4
S113199004C0AACF812C912C5401C7FF08C0B09475
S11319A0A09490948094811C911CA11CB11C2C2F98
S11319B0B501A401C7010E940B0C81E0DF91CF9116
S11319C01F910F91FF90EF90BF90AF909F908F90D9
S11319D00895A0E2B0E0EFEEFCE00C94290F5C0166
S11319E0962E7A01F9018E010F5F1F4F680180E284
S11319F0D8011D928A95E9F7D50113968C9080E061
S1131A0090E0612C712C30E061E070E083FC259162
S1131A1083FE21918F01522E211103C080E090E0BA
S1131A2092C02E3511F4009751F1432F50E048171E
S1131A3059073CF42D3559F12D3219F4772009F169
S1131A4003C0772009F46AC0452D4695469546950E
S1131A50D601A40FB11D452D47708B0102C0000FA4
S1131A60111F4A95E2F7A8015C91452B4C9365142C
S1131A7059F0561410F45394E7CF5A94E5CF31E05B
S1131A8004C07724739401C0712C0196BFCF7720D2
S1131A9019F08E8180628E83311103C0882483946F
S1131AA017C0F6019E012F5D3F4F80818095819381
S1131AB02E173F07D1F7F2CFE114F10429F0D70133
S1131AC08C93F70131967F019A94812C9920F9F037
S1131AD0C5010E94CC0E97FD18C0FC01FF2723E02E
S1131AE0F595E7952A95E1F7EC0DFD1D208130E091
S1131AF0AC014770552702C0359527954A95E2F702
S1131B0020FDDACFB5010E940A0F811087CFE114BE
S1131B10F10411F0D7011C92C80115C0422F46955B
S1131B2046954695D601A40FB11D422F47708B01EF
S1131B3002C0000F111F4A95E2F7A8015C91452BE2
S1131B404C93622EA2CFA096EFE00C94420FA0E03B
S1131B50B0E0EDEAFDE00C94290F6C01EB015A01B1
S1131B60FC0116821782512CF601E380FE01E3FC8E
S1131B708591E3FE8191182FEF01882309F4EEC0CB
S1131B8090E00E94B80E892B21F0C6010E943E0C01
S1131B90EBCF153241F4FE01E3FC1591E3FE119104
S1131BA0EF01153281F4C6010E94CC0E97FDD4C01A
S1131BB0412F50E09C01332724173507A9F2B601C1
S1131BC00E940A0FCBC01A3239F4E3FC1591E3FEEC
S1131BD01191EF0101E001C000E0F12C20ED210F93
S1131BE02A3080F402606F2D70E080E090E040E2E3
S1131BF00E94170CF62EFE01E3FC1591E3FE1191F1
S1131C00EF01ECCF01FF03C0F11003C0A7C0FF2414
S1131C10FA94183619F01C3651F010C0FE01E3FC9A
S1131C201591E3FE1191EF01183641F40860046048
S1131C30FE01E3FC1591E3FE1191EF01112309F478
S1131C408DC0612F70E08CEF91E00E94C10E892B52
S1131C5009F484C000FD07C0F50180809180C501AE
S1131C6002965C0102C0812C912C1E3651F4F601BF
S1131C704681578160E070E0202FC4010E940B0C64
S1131C8073CF1336A9F401FD02C0FF24F394C601F7
S1131C900E94CC0E97FD60C08114910429F0F401D8
S1131CA08083C40101964C01FA94F110F0CF50C026
S1131CB01B3559F49E01A4016F2DC6010E94E90C45
S1131CC0EC01892B09F044C03EC0C6010E943E0CC1
S1131CD097FD42C01F3661F128F4143639F11936E4
S1131CE051F128C0133771F0153701F123C0811465
S1131CF0910429F0F4016082C40101964C01FA9424
S1131D00FF2071F0C6010E94CC0E3C0197FD08C073
S1131D100E94B80E892B59F3B601C3010E940A0F21
S1131D2081149104A9F0F401108212C0006203C06E
S1131D30006101C00064202FA4016F2DC6010E9420
S1131D40570C811105C0F6018381807329F406C004
S1131D5000FD0ACF539408CF552019F0852D90E04B
S1131D6002C08FEF9FEFCDB7DEB7EFE00C94420FC8
S1131D7091110C94230F803219F089508550C8F7C3
S1131D800895FC010590061621F00020D9F7C00142
S1131D9008953197CF010895CF93DF93EC012B8100
S1131DA020FF33C026FF0AC02F7B2B838E819F81A7
S1131DB001968E839F838A8190E029C022FF0FC001
S1131DC0E881F9818081082E000C990B009719F4A1
S1131DD020622B831AC03196E883F9830EC0EA850A
S1131DE0FB85099597FF09C02B81019611F080E2CC
S1131DF001C080E1822B8B8308C02E813F812F5F3D
S1131E003F4F2E833F83992702C08FEF9FEFDF91CF
S1131E10CF910895FB01238120FF12C026FD10C03D
S1131E208F3F3FEF930761F082832F7D20642383EC
S1131E3026813781215031092683378399270895D4
S1131E408FEF9FEF08959927882708952F923F9247
S1131E504F925F926F927F928F929F92AF92BF92B6
S1131E60CF92DF92EF92FF920F931F93CF93DF9362
S1131E70CDB7DEB7CA1BDB0BCDBFDEBF09942A8802
S1131E80398848885F846E847D848C849B84AA848A
S1131E90B984C884DF80EE80FD800C811B81AA8117
S1131EA0B981CE0FD11DCDBFDEBFED010895F894E9
S1051EB0FFCF5E
S1131EB200005620200041540D000D0A4F4B0D0A1C
S1091EC2004154490D002B
S9030000FC
